:100000000C942A000C949F0A0C9447000C9447000F
:100010000C9447000C9447000C9447000C946B0A16
:100020000C9447000C9447000C9447000C94470034
:100030000C9447000C9447000C9447000C94470024
:100040000C9447000C9447000C9447000C94470014
:100050000C94470011241FBECFE5D8E0DEBFCDBF12
:1000600011E0A8E6B1E001C01D92A437B107E1F7A5
:1000700011E0A0E6B0E0E0EAF6E102C005900D92E2
:10008000A836B107D9F70E9432080C944E0B0C9495
:100090000000EF92FF920F931F937B018C0120E0F1
:1000A00030E040E05FE40E94250488238CF0C80122
:1000B000B70120E030E040E05FE40E94C1010E940F
:1000C000B5049B01AC01205030404040504806C070
:1000D000C801B7010E94B5049B01AC01B901CA0176
:1000E0001F910F91FF90EF900895A0E0B0E0EBE733
:1000F000F0E00C94020BDC012B01FA019C91923090
:1001000008F439C1EB018881823008F433C194309E
:1001100069F4843009F02FC111969C91119789815F
:10012000981709F428C1A0E6B0E025C1843009F48D
:1001300021C18230A9F4923009F01DC19A01AD01AC
:1001400088E0EA010990AE01E90109929E0181501F
:10015000C1F7E201898111969C918923818308C1AD
:10016000923009F407C112962D903C901397EB0141
:100170008A819B811496AD90BD90CD90DC901797AD
:10018000EC80FD800E811F819101281B390BB90184
:1001900037FF04C066277727621B730B6032710537
:1001A0000CF061C0121613066CF537014801062EDB
:1001B00004C096948794779467940A94D2F721E0C8
:1001C00030E040E050E004C0220F331F441F551FB1
:1001D0006A95D2F721503040404050402E213F21B7
:1001E00040235123211531054105510521F021E01E
:1001F00030E040E050E079018A01E628F72808293C
:1002000019293CC0232BD1F1260E371E350146019A
:10021000062E04C096948794779467940A94D2F734
:1002200021E030E040E050E004C0220F331F441FC3
:10023000551F6A95D2F721503040404050402A2146
:100240003B214C215D21211531054105510521F04E
:1002500021E030E040E050E059016A01A628B728CB
:10026000C828D9280BC0821593052CF01C01AA249C
:10027000BB24650103C0EE24FF24870111969C91E5
:10028000D20111968C91981709F445C0992339F041
:10029000A80197012A193B094C095D0906C0A6016E
:1002A00095012E193F09400B510B57FD08C01182D3
:1002B0003382228224833583468357831DC081E0A5
:1002C00081833382228288279927DC01821B930B4A
:1002D000A40BB50B84839583A683B7830DC0220F2F
:1002E000331F441F551F24833583468357838281E0
:1002F000938101979383828324813581468157813D
:10030000DA01C9010197A109B1098F5F9F4FAF4F72
:10031000BF4328F30BC0918333822282EA0CFB1C7B
:100320000C1D1D1DE482F5820683178383E0808304
:10033000248135814681578157FF1AC0C901AA27F8
:1003400097FDA095BA2F81709070A070B0705695EF
:10035000479537952795822B932BA42BB52B848318
:100360009583A683B7838281938101969383828349
:10037000DF0101C0D201CD01CDB7DEB7E2E10C94BF
:100380001E0BA0E2B0E0E7ECF1E00C940E0B6983E9
:100390007A838B839C832D833E834F835887E9E048
:1003A000EE2EF12CEC0EFD1ECE010196B7010E943F
:1003B000A6068E010F5E1F4FCE010596B8010E9462
:1003C000A6068A8991E089278A8BC701B801AE0108
:1003D000475E5F4F0E9475000E94D105A096E6E03F
:1003E0000C942A0BA0E2B0E0E8EFF1E00C940E0BC5
:1003F00069837A838B839C832D833E834F835887C5
:10040000F9E0EF2EF12CEC0EFD1ECE010196B701A6
:100410000E94A6068E010F5E1F4FCE010596B80101
:100420000E94A606C701B801AE01475E5F4F0E9459
:1004300075000E94D105A096E6E00C942A0BA0E27C
:10044000B0E0E5E2F2E00C94020B69837A838B83DF
:100450009C832D833E834F835887CE010196BE0136
:10046000675F7F4F0E94A606CE010596BE016F5EB4
:100470007F4F0E94A6069985923088F08989823044
:10048000C8F0943019F4823051F404C0843029F457
:10049000923081F480E690E0C6C0923049F420E0CA
:1004A0009A858A89981321E02A87CE010996BBC0D4
:1004B000823049F420E09A858A89981321E02A8BBA
:1004C000CE014196B0C02D843E844F8458886D88FB
:1004D0007E888F88988CEE24FF248701AA24BB2471
:1004E000650140E050E060E070E0E0E0F0E0C10174
:1004F00081709070892BE9F0E60CF71C081D191D1E
:100500009A01AB012A0D3B1D4C1D5D1D80E090E062
:10051000A0E0B0E0E614F7040805190520F481E036
:1005200090E0A0E0B0E0BA01A901480F591F6A1F8E
:100530007B1FAA0CBB1CCC1CDD1C97FE08C081E0F5
:1005400090E0A0E0B0E0A82AB92ACA2ADB2A3196B6
:10055000E032F10549F0660C771C881C991C569412
:10056000479437942794C3CFFA85EA892B893C892D
:100570008B859C85280F391F2E5F3F4F17C0CA01FE
:1005800081709070892B61F016950795F794E79428
:1005900080E090E0A0E0B0E8E82AF92A0A2B1B2BC3
:1005A00076956795579547952F5F3F4F77FDE7CF36
:1005B0000CC0440F551F661F771F17FD4160EE0CDE
:1005C000FF1C001F111F21503040403090E05907A0
:1005D00090E0690790E4790760F32B8F3C8FDB0193
:1005E000CA018F779070A070B07080349105A1051A
:1005F000B10561F447FD0AC0E114F10401051105DC
:1006000029F0405C5F4F6F4F7F4F40781A8EFE1786
:1006100011F081E08A8F4D8F5E8F6F8F78A383E01A
:10062000898FCE0149960E94D105A096E2E10C94F3
:100630001E0BA8E1B0E0EFE1F3E00C940A0B698334
:100640007A838B839C832D833E834F835887B9E0C5
:10065000EB2EF12CEC0EFD1ECE010196B7010E948F
:10066000A6068E010F5E1F4FCE010596B8010E94AF
:10067000A6062985223008F47EC03989323010F46C
:10068000B8017CC08A859A8989278A87243011F02D
:10069000223031F4231709F06EC060E670E06EC0BE
:1006A000343039F41D861E861F86188A1C861B86E8
:1006B00004C0323021F484E08987B7015FC02B8504
:1006C0003C858B899C89281B390B3C872B87ED84C3
:1006D000FE840F851889AD88BE88CF88D88CEA142F
:1006E000FB040C051D0540F4EE0CFF1C001F111F40
:1006F000215030403C872B8720E030E040E050E044
:1007000080E090E0A0E0B0E460E070E0EA14FB0478
:100710000C051D0540F0282B392B4A2B5B2BEA18C2
:10072000FB080C091D09B695A79597958795EE0CC2
:10073000FF1C001F111F6F5F7F4F6F31710531F775
:10074000DA01C9018F779070A070B0708034910584
:10075000A105B10561F427FD0AC0E114F10401050A
:10076000110529F0205C3F4F4F4F5F4F20782D87B8
:100770003E874F87588BBE01675F7F4FCB010E943A
:10078000D1056896EAE00C94260BA8E1B0E0EBEC0A
:10079000F3E00C940E0B69837A838B839C832D8307
:1007A0003E834F83588789E0E82EF12CEC0EFD1E26
:1007B000CE010196B7010E94A6068E010F5E1F4F63
:1007C000CE010596B8010E94A6068985823040F0C8
:1007D0008989823028F0C701B8010E941E0701C034
:1007E00081E06896E6E00C942A0BA8E1B0E0EBEF1C
:1007F000F3E00C940E0B69837A838B839C832D83A7
:100800003E834F83588789E0E82EF12CEC0EFD1EC5
:10081000CE010196B7010E94A6068E010F5E1F4F02
:10082000CE010596B8010E94A6068985823040F067
:100830008989823028F0C701B8010E941E0701C0D3
:100840008FEF6896E6E00C942A0BA8E1B0E0EBE2AB
:10085000F4E00C940E0B69837A838B839C832D8345
:100860003E834F83588789E0E82EF12CEC0EFD1E65
:10087000CE010196B7010E94A6068E010F5E1F4FA2
:10088000CE010596B8010E94A6068985823040F007
:100890008989823028F0C701B8010E941E0701C073
:1008A0008FEF6896E6E00C942A0BA8E1B0E0EBE548
:1008B000F4E00C940E0B69837A838B839C832D83E5
:1008C0003E834F83588789E0E82EF12CEC0EFD1E05
:1008D000CE010196B7010E94A6068E010F5E1F4F42
:1008E000CE010596B8010E94A6068985823040F0A7
:1008F0008989823028F0C701B8010E941E0701C013
:1009000081E06896E6E00C942A0BA8E1B0E0EBE801
:10091000F4E00C940E0B69837A838B839C832D8384
:100920003E834F83588789E0E82EF12CEC0EFD1EA4
:10093000CE010196B7010E94A6068E010F5E1F4FE1
:10094000CE010596B8010E94A6068985823040F046
:100950008989823028F0C701B8010E941E0701C0B2
:1009600081E06896E6E00C942A0BACE0B0E0EBEB9B
:10097000F4E00C94120B69837A838B839C83CE0101
:100980000196BE016B5F7F4F0E94A6068D8182306B
:1009900061F1823050F1843021F48E81882351F14D
:1009A0002EC02F81388537FD20C06E812F31310553
:1009B0001CF06623F9F023C08EE190E0821B930BBC
:1009C00029853A854B855C8504C0569547953795B2
:1009D00027958A95D2F76623B1F0509540953095CA
:1009E00021953F4F4F4F5F4F0EC020E030E040E079
:1009F00050E009C02FEF3FEF4FEF5FE704C020E06A
:100A000030E040E050E8B901CA012C96E2E00C94D5
:100A10002E0BA8E0B0E0EFE0F5E00C940A0B7B01B0
:100A20008C01611571058105910519F482E08983B6
:100A300060C083E089838EE1C82ED12CDC82CB821A
:100A4000ED82FE820F831887C801B7010E948205DC
:100A5000FC013197F7FF3BC0222733272E1B3F0BAA
:100A600057016801022E04C0D694C794B794A79486
:100A70000A94D2F740E050E060E070E081E090E05E
:100A8000A0E0B0E004C0880F991FAA1FBB1F2A95E1
:100A9000D2F70197A109B1098E219F21A023B1238B
:100AA0000097A105B10521F041E050E060E070E061
:100AB0004A295B296C297D294D835E836F83788762
:100AC0008EE190E08E1B9F0B9C838B8312C030972E
:100AD00081F00E2E04C0EE0CFF1C001F111F0A94A3
:100AE000D2F7ED82FE820F831887CE1ADF0ADC82EE
:100AF000CB821A82CE0101960E94D1052896EAE0A7
:100B00000C94260BEF92FF920F931F937B018C01A5
:100B100080E0E81680E0F80681E0080780E018072A
:100B200088F48FEFE816F1040105110531F028F083
:100B300088E090E0A0E0B0E017C080E090E0A0E0A6
:100B4000B0E012C080E0E81680E0F80680E0080718
:100B500081E0180728F088E190E0A0E0B0E004C050
:100B600080E190E0A0E0B0E020E230E040E050E042
:100B7000281B390B4A0B5B0B04C016950795F7949D
:100B8000E7948A95D2F7F701E859FF4F8081281B37
:100B9000310941095109C9011F910F91FF90EF904F
:100BA0000895DF92EF92FF920F931F93FC01E48070
:100BB000F58006811781D1808081823048F480E001
:100BC00090E0A0E1B0E0E82AF92A0A2B1B2BA5C08F
:100BD000843009F49FC0823021F4EE24FF24870181
:100BE00005C0E114F1040105110519F4E0E0F0E09D
:100BF00096C0628173819FEF623879070CF05BC009
:100C000022E83FEF261B370B2A3131052CF020E07C
:100C100030E040E050E02AC0B801A701022E04C035
:100C200076956795579547950A94D2F781E090E0BD
:100C3000A0E0B0E004C0880F991FAA1FBB1F2A952F
:100C4000D2F70197A109B1098E219F21A023B123D9
:100C50000097A105B10521F081E090E0A0E0B0E0AF
:100C60009A01AB01282B392B4A2B5B2BDA01C901E6
:100C70008F779070A070B07080349105A105B10598
:100C800039F427FF09C0205C3F4F4F4F5F4F04C02E
:100C9000215C3F4F4F4F5F4FE0E0F0E02030A0E09D
:100CA0003A07A0E04A07A0E45A0710F0E1E0F0E0BC
:100CB00079018A0127C06038710564F5FB01E158AC
:100CC000FF4FD801C7018F779070A070B07080344B
:100CD0009105A105B10539F4E7FE0DC080E490E06F
:100CE000A0E0B0E004C08FE390E0A0E0B0E0E80E48
:100CF000F91E0A1F1B1F17FF05C016950795F794CD
:100D0000E794319687E016950795F794E7948A95CE
:100D1000D1F705C0EE24FF248701EFEFF0E06E2F3E
:100D2000679566276795902F9F77D794DD24D79492
:100D30008E2F8695492F462B582F5D29B701CA0162
:100D40001F910F91FF90EF90DF900895FC01DB0160
:100D5000408151812281622F6F7770E0221F22270C
:100D6000221F9381892F880F822B282F30E0991F13
:100D70009927991F11969C93119721153105A9F573
:100D8000411551056105710511F482E037C082E813
:100D90009FEF13969C938E9312979A01AB0167E095
:100DA000220F331F441F551F6A95D1F783E08C93A0
:100DB0000DC0220F331F441F551F12968D919C9119
:100DC0001397019713969C938E931297203080E08F
:100DD000380780E0480780E4580758F314962D93AD
:100DE0003D934D935C93179708952F3F310579F408
:100DF000411551056105710519F484E08C9308953E
:100E000064FF03C081E08C9312C01C9210C02F5766
:100E1000304013963C932E93129783E08C9387E097
:100E2000440F551F661F771F8A95D1F7706414967B
:100E30004D935D936D937C93179708951F93DC01F9
:100E4000FB019C91923008F447C08081823008F405
:100E500043C0943051F411961C91843099F58181EE
:100E6000682F70E0611B71093FC0843021F092301F
:100E700031F48230B9F18181882389F12DC0119636
:100E80001C9111978230F1F081811817D9F41296D4
:100E90002D913C911397828193818217930794F04F
:100EA00028173907BCF014968D919D910D90BC9137
:100EB000A02D2481358146815781281739074A079B
:100EC0005B0718F4112341F00AC082179307A407A7
:100ED000B50740F4112319F061E070E005C06FEF31
:100EE0007FEF02C060E070E0CB011F910895DF93B7
:100EF000CF93CDB7DEB7E6E2F0E086E08083E7E2AD
:100F0000F0E080E48083CF91DF910895DF93CF9369
:100F10000F92CDB7DEB78983A7E2B0E0E7E2F0E059
:100F20008081982F907F89818F70892B8C93A6E286
:100F3000B0E0E6E2F0E0808180648C93E6E2F0E0ED
:100F40008081882F90E0807490700097B9F7E4E278
:100F5000F0E0808191810F90CF91DF910895DF9330
:100F6000CF93CDB7DEB7A7E3B0E0E7E3F0E0808151
:100F70008E7F8C93E5E5F0E082E08083EBE5F0E0A6
:100F800080E48083CF91DF910895DF93CF93CDB735
:100F9000DEB7AEE4B0E0EEE4F0E080818B608C93ED
:100FA000E3E4F0E083E28083A9E5B0E0E9E5F0E086
:100FB000808180688C93CF91DF910895DF93CF93E8
:100FC000CDB7DEB7F894E1E4F0E089E0808378946F
:100FD000CF91DF910895DF93CF9300D0CDB7DEB7E7
:100FE00083E390E09A838983E0E4F0E089819A8149
:100FF000892F99278083E9E2F0E089818083EAE202
:10100000F0E088E08083E0E4F0E086E080830F9009
:101010000F90CF91DF910895DF93CF930F92CDB7CB
:10102000DEB78983EBE2F0E08081882F90E0807268
:1010300090700097B9F3ECE2F0E0898180830F9023
:10104000CF91DF910895DF93CF93CDB7DEB7EBE279
:10105000F0E080818823DCF7ECE2F0E08081CF9142
:10106000DF910895DF93CF93CDB7DEB77894A7E3F0
:10107000B0E0E7E3F0E0808188608C93A3E5B0E026
:10108000E3E5F0E080818A668C930E94770780E038
:1010900090E00E94390B80936B0180916B0182304C
:1010A00011F40E940A0A80E00E948607CC01A0E0A9
:1010B000B0E0BC01CD010E940905DC01CB018093A9
:1010C0006C0190936D01A0936E01B0936F0180E06D
:1010D00090E060E00E94410B80E00E948607CC0116
:1010E000A0E0B0E0BC01CD010E940905DC01CB010C
:1010F00080936C0190936D01A0936E01B0936F018A
:1011000080916C0190916D01A0916E01B0916F0181
:10111000BC01CD010E944900DC01CB010E940C08FA
:1011200080916C0190916D01A0916E01B0916F0161
:1011300020917001309171014091720150917301C1
:10114000BC01CD010E94C503882321F48091680170
:10115000882311F681E08093680180916C01909161
:101160006D01A0916E01B0916F01BC01CD0120E035
:1011700030E048E452E40E94850418161CF01092F6
:101180006B0115C080916C0190916D01A0916E0171
:10119000B0916F01BC01CD0120E030E048E452E4A1
:1011A0000E94F50318161CF481E080936B01809176
:1011B0006C0190916D01A0916E01B0916F01BC0125
:1011C000CD010E944900DC01CB010E94E80884CFD8
:1011D000DF93CF9300D00F92CDB7DEB78983909184
:1011E0006B0180916A019817E1F080916B01282FC3
:1011F00030E03B832A838A819B818130910561F0B5
:101200002A813B812230310551F08A819B810097F0
:1012100041F40E94170905C00E94F60902C00E940D
:101220000A0A0F900F900F90CF91DF9108950F93BE
:101230001F93DF93CF9300D000D0CDB7DEB780E00F
:1012400090E060E00E94410B80916C0190916D01F3
:10125000A0916E01B0916F01BC01CD0120E030E0A2
:1012600040EA51E40E945504882324F4ECE5F0E0C0
:101270001082B3C080916C0190916D01A0916E01BC
:10128000B0916F011C82BC01CD0120E030E040EA4A
:1012900051E40E942504882314F081E08C8381E0CE
:1012A0009C818927882309F04BC080916C01909123
:1012B0006D01A0916E01B0916F011B82BC01CD0147
:1012C00020E030E040E252E40E945504882314F408
:1012D000E1E0EB8381E0FB818F27882389F50CE532
:1012E00010E080916C0190916D01A0916E01B09120
:1012F0006F01BC01CD0120E030E040EA51E40E94E2
:10130000C101DC01CB01BC01CD0120E030E040EAAD
:1013100051E40E941903DC01CB01BC01CD0120E0A6
:1013200030E04FE753E40E941F02DC01CB01BC0117
:10133000CD010E944900DC01CB01F80180834DC042
:1013400080916C0190916D01A0916E01B0916F013F
:101350001A82BC01CD0120E030E040E252E40E945C
:101360002504882314F0F1E0FA8381E09A8189272B
:101370008823F9F480916C0190916D01A0916E0128
:10138000B0916F011982BC01CD0120E030E048E44A
:1013900052E40E948504181614F0E1E0E98381E02C
:1013A000F9818F27882329F4ECE5F0E08FEF808323
:1013B00014C080916C0190916D01A0916E01B0916B
:1013C0006F01BC01CD0120E030E048E452E40E940E
:1013D000F503181614F40E94F6090F900F900F9061
:1013E0000F90CF91DF911F910F910895DF93CF93CD
:1013F000CDB7DEB780E090E061E00E94410BECE504
:10140000F0E08FEF80830E94C5070E94DE07CF9136
:10141000DF910895DF93CF93CDB7DEB780E090E002
:1014200062E00E94410BECE5F0E08FEF8083CF910A
:10143000DF910895DF93CF93CDB7DEB72A970FB62C
:10144000F894DEBF0FBECDBF80E00E9486079A876A
:10145000898789859A85CC01A0E0B0E0BC01CD01E7
:101460000E940905DC01CB01BC01CD0120E030E088
:1014700040EA5BE30E941F02DC01CB018D839E8367
:10148000AF83B8876D817E818F81988520E030E0C1
:1014900040E05FE30E94C101DC01CB01BC01CD0152
:1014A00020E030E048EC52E40E941F02DC01CB0156
:1014B00089839A83AB83BC8389819A81AB81BC8108
:1014C000BC01CD012A960FB6F894DEBF0FBECDBF8A
:1014D000CF91DF9108951F920F920FB60F921124B2
:1014E0002F933F934F935F936F937F938F939F932C
:1014F000AF93BF93EF93FF93DF93CF93CDB7DEB757
:10150000809169018E3019F40E940A0A05C0809109
:1015100069018F5F80936901CF91DF91FF91EF9116
:10152000BF91AF919F918F917F916F915F914F91FB
:101530003F912F910F900FBE0F901F9018951F9203
:101540000F920FB60F9211242F933F934F935F93F7
:101550006F937F938F939F93AF93BF93EF93FF937B
:10156000DF93CF93CDB7DEB780E00E948607CC0132
:10157000A0E0B0E0BC01CD010E940905DC01CB0177
:1015800080936C0190936D01A0936E01B0936F01F5
:1015900080916C0190916D01A0916E01B0916F01ED
:1015A000BC01CD0120E030E040E252E40E9425047D
:1015B0008823ACF080916C0190916D01A0916E0137
:1015C000B0916F01BC01CD0120E030E048E452E46D
:1015D0000E94850418161CF084E50E940C08CF9127
:1015E000DF91FF91EF91BF91AF919F918F917F918B
:1015F0006F915F914F913F912F910F900FBE0F9080
:101600001F9018952F923F924F925F926F927F9208
:101610008F929F92AF92BF92CF92DF92EF92FF9202
:101620000F931F93CF93DF93CDB7DEB7CA1BDB0BAE
:101630000FB6F894DEBF0FBECDBF09942A88398853
:1016400048885F846E847D848C849B84AA84B9845A
:10165000C884DF80EE80FD800C811B81AA81B98166
:10166000CE0FD11D0FB6F894DEBF0FBECDBFED017A
:101670000895E199FECF9FBB8EBBE09A99278DB369
:101680000895262FE199FECF9FBB8EBB2DBB0FB6D1
:10169000F894E29AE19A0FBE01960895F894FFCF6C
:1016A0000000000000000000000102020303030329
:1016B00004040404040404040505050505050505E2
:1016C00005050505050505050606060606060606C2
:1016D00006060606060606060606060606060606AA
:1016E0000606060606060606070707070707070792
:1016F000070707070707070707070707070707077A
:101700000707070707070707070707070707070769
:101710000707070707070707070707070707070759
:101720000707070707070707080808080808080841
:101730000808080808080808080808080808080829
:101740000808080808080808080808080808080819
:101750000808080808080808080808080808080809
:1017600008080808080808080808080808080808F9
:1017700008080808080808080808080808080808E9
:1017800008080808080808080808080808080808D9
:1017900008080808080808080808080808080808C9
:0817A000080808080808080801
:00000001FF
