:100000000C942A000C9459100C9447000C9447004F
:100010000C9447000C9447000C9447000C94860EF7
:100020000C9447000C9447000C9447000C94470034
:100030000C9447000C9447000C9447000C94470024
:100040000C9447000C9447000C9447000C94470014
:100050000C94470011241FBECFE5D8E0DEBFCDBF12
:1000600011E0A0E6B0E0E4E0F2E202C005900D92FB
:10007000AA36B107D9F711E0AAE6B1E001C01D9296
:10008000AF36B107E1F70E94F30B0C9400110C940A
:100090000000EF92FF920F931F937B018C0120E0F1
:1000A00030E040E05FE40E94F50388238CF0C80153
:1000B000B70120E030E040E05FE40E94C1010E940F
:1000C00085049B01AC01205030404040504806C0A0
:1000D000C801B7010E9485049B01AC01B901CA01A6
:1000E0001F910F91FF90EF900895A0E0B0E0EBE733
:1000F000F0E00C94B410DC012B01FA019C919230D9
:1001000008F439C1EB018881823008F433C194309E
:1001100069F4843009F02FC111969C91119789815F
:10012000981709F428C1A0E6B0E025C1843009F48D
:1001300021C18230A9F4923009F01DC19A01AD01AC
:1001400088E0EA010990AE01E90109929E0181501F
:10015000C1F7E201898111969C918923818308C1AD
:10016000923009F407C112962D903C901397EB0141
:100170008A819B811496AD90BD90CD90DC901797AD
:10018000EC80FD800E811F819101281B390BB90184
:1001900037FF04C066277727621B730B6032710537
:1001A0000CF061C0121613066CF537014801062EDB
:1001B00004C096948794779467940A94D2F721E0C8
:1001C00030E040E050E004C0220F331F441F551FB1
:1001D0006A95D2F721503040404050402E213F21B7
:1001E00040235123211531054105510521F021E01E
:1001F00030E040E050E079018A01E628F72808293C
:1002000019293CC0232BD1F1260E371E350146019A
:10021000062E04C096948794779467940A94D2F734
:1002200021E030E040E050E004C0220F331F441FC3
:10023000551F6A95D2F721503040404050402A2146
:100240003B214C215D21211531054105510521F04E
:1002500021E030E040E050E059016A01A628B728CB
:10026000C828D9280BC0821593052CF01C01AA249C
:10027000BB24650103C0EE24FF24870111969C91E5
:10028000D20111968C91981709F445C0992339F041
:10029000A80197012A193B094C095D0906C0A6016E
:1002A00095012E193F09400B510B57FD08C01182D3
:1002B0003382228224833583468357831DC081E0A5
:1002C00081833382228288279927DC01821B930B4A
:1002D000A40BB50B84839583A683B7830DC0220F2F
:1002E000331F441F551F24833583468357838281E0
:1002F000938101979383828324813581468157813D
:10030000DA01C9010197A109B1098F5F9F4FAF4F72
:10031000BF4328F30BC0918333822282EA0CFB1C7B
:100320000C1D1D1DE482F5820683178383E0808304
:10033000248135814681578157FF1AC0C901AA27F8
:1003400097FDA095BA2F81709070A070B0705695EF
:10035000479537952795822B932BA42BB52B848318
:100360009583A683B7838281938101969383828349
:10037000DF0101C0D201CD01CDB7DEB7E2E10C94BF
:10038000D010A0E2B0E0E7ECF1E00C94C01069837B
:100390007A838B839C832D833E834F835887E9E048
:1003A000EE2EF12CEC0EFD1ECE010196B7010E943F
:1003B00076068E010F5E1F4FCE010596B8010E9492
:1003C00076068A8991E089278A8BC701B801AE0138
:1003D000475E5F4F0E9475000E94A105A096E6E06F
:1003E0000C94DC10A0E2B0E0E8EFF1E00C94C01057
:1003F00069837A838B839C832D833E834F835887C5
:10040000F9E0EF2EF12CEC0EFD1ECE010196B701A6
:100410000E9476068E010F5E1F4FCE010596B80131
:100420000E947606C701B801AE01475E5F4F0E9489
:1004300075000E94A105A096E6E00C94DC10A0E2F5
:10044000B0E0E5E2F2E00C94B41069837A838B8328
:100450009C832D833E834F835887CE010196BE0136
:10046000675F7F4F0E947606CE010596BE016F5EE4
:100470007F4F0E9476069985923088F08989823074
:10048000C8F0943019F4823051F404C0843029F457
:10049000923081F480E690E0C6C0923049F420E0CA
:1004A0009A858A89981321E02A87CE010996BBC0D4
:1004B000823049F420E09A858A89981321E02A8BBA
:1004C000CE014196B0C02D843E844F8458886D88FB
:1004D0007E888F88988CEE24FF248701AA24BB2471
:1004E000650140E050E060E070E0E0E0F0E0C10174
:1004F00081709070892BE9F0E60CF71C081D191D1E
:100500009A01AB012A0D3B1D4C1D5D1D80E090E062
:10051000A0E0B0E0E614F7040805190520F481E036
:1005200090E0A0E0B0E0BA01A901480F591F6A1F8E
:100530007B1FAA0CBB1CCC1CDD1C97FE08C081E0F5
:1005400090E0A0E0B0E0A82AB92ACA2ADB2A3196B6
:10055000E032F10549F0660C771C881C991C569412
:10056000479437942794C3CFFA85EA892B893C892D
:100570008B859C85280F391F2E5F3F4F17C0CA01FE
:1005800081709070892B61F016950795F794E79428
:1005900080E090E0A0E0B0E8E82AF92A0A2B1B2BC3
:1005A00076956795579547952F5F3F4F77FDE7CF36
:1005B0000CC0440F551F661F771F17FD4160EE0CDE
:1005C000FF1C001F111F21503040403090E05907A0
:1005D00090E0690790E4790760F32B8F3C8FDB0193
:1005E000CA018F779070A070B07080349105A1051A
:1005F000B10561F447FD0AC0E114F10401051105DC
:1006000029F0405C5F4F6F4F7F4F40781A8EFE1786
:1006100011F081E08A8F4D8F5E8F6F8F78A383E01A
:10062000898FCE0149960E94A105A096E2E10C9423
:10063000D010A8E1B0E0EFE1F3E00C94BC106983C6
:100640007A838B839C832D833E834F835887B9E0C5
:10065000EB2EF12CEC0EFD1ECE010196B7010E948F
:1006600076068E010F5E1F4FCE010596B8010E94DF
:1006700076062985223008F47EC03989323010F49C
:10068000B8017CC08A859A8989278A87243011F02D
:10069000223031F4231709F06EC060E670E06EC0BE
:1006A000343039F41D861E861F86188A1C861B86E8
:1006B00004C0323021F484E08987B7015FC02B8504
:1006C0003C858B899C89281B390B3C872B87ED84C3
:1006D000FE840F851889AD88BE88CF88D88CEA142F
:1006E000FB040C051D0540F4EE0CFF1C001F111F40
:1006F000215030403C872B8720E030E040E050E044
:1007000080E090E0A0E0B0E460E070E0EA14FB0478
:100710000C051D0540F0282B392B4A2B5B2BEA18C2
:10072000FB080C091D09B695A79597958795EE0CC2
:10073000FF1C001F111F6F5F7F4F6F31710531F775
:10074000DA01C9018F779070A070B0708034910584
:10075000A105B10561F427FD0AC0E114F10401050A
:10076000110529F0205C3F4F4F4F5F4F20782D87B8
:100770003E874F87588BBE01675F7F4FCB010E943A
:10078000A1056896EAE00C94D810A8E1B0E0EBEC83
:10079000F3E00C94C01069837A838B839C832D8350
:1007A0003E834F83588789E0E82EF12CEC0EFD1E26
:1007B000CE010196B7010E9476068E010F5E1F4F93
:1007C000CE010596B8010E9476068985823040F0F8
:1007D0008989823028F0C701B8010E94EE0601C065
:1007E0008FEF6896E6E00C94DC10A8E1B0E0EBEF48
:1007F000F3E00C94C01069837A838B839C832D83F0
:100800003E834F83588789E0E82EF12CEC0EFD1EC5
:10081000CE010196B7010E9476068E010F5E1F4F32
:10082000CE010596B8010E9476068985823040F097
:100830008989823028F0C701B8010E94EE0601C004
:100840008FEF6896E6E00C94DC10A8E1B0E0EBE2F4
:10085000F4E00C94C01069837A838B839C832D838E
:100860003E834F83588789E0E82EF12CEC0EFD1E65
:10087000CE010196B7010E9476068E010F5E1F4FD2
:10088000CE010596B8010E9476068985823040F037
:100890008989823028F0C701B8010E94EE0601C0A4
:1008A00081E06896E6E00C94DC10A8E1B0E0EBE5AE
:1008B000F4E00C94C01069837A838B839C832D832E
:1008C0003E834F83588789E0E82EF12CEC0EFD1E05
:1008D000CE010196B7010E9476068E010F5E1F4F72
:1008E000CE010596B8010E9476068985823040F0D7
:1008F0008989823028F0C701B8010E94EE0601C044
:1009000081E06896E6E00C94DC10ACE0B0E0EBE847
:10091000F4E00C94C41069837A838B839C83CE01AA
:100920000196BE016B5F7F4F0E9476068D818230FB
:1009300061F1823050F1843021F48E81882351F1AD
:100940002EC02F81388537FD20C06E812F313105B3
:100950001CF06623F9F023C08EE190E0821B930B1C
:1009600029853A854B855C8504C056954795379512
:1009700027958A95D2F76623B1F05095409530952A
:1009800021953F4F4F4F5F4F0EC020E030E040E0D9
:1009900050E009C02FEF3FEF4FEF5FE704C020E0CA
:1009A00030E040E050E8B901CA012C96E2E00C9436
:1009B000E010A8E0B0E0EFEDF4E00C94BC107B0197
:1009C0008C01611571058105910519F482E0898317
:1009D00060C083E089838EE1C82ED12CDC82CB827B
:1009E000ED82FE820F831887C801B7010E9452056D
:1009F000FC013197F7FF3BC0222733272E1B3F0B0B
:100A000057016801022E04C0D694C794B794A794E6
:100A10000A94D2F740E050E060E070E081E090E0BE
:100A2000A0E0B0E004C0880F991FAA1FBB1F2A9541
:100A3000D2F70197A109B1098E219F21A023B123EB
:100A40000097A105B10521F041E050E060E070E0C1
:100A50004A295B296C297D294D835E836F837887C2
:100A60008EE190E08E1B9F0B9C838B8312C030978E
:100A700081F00E2E04C0EE0CFF1C001F111F0A9403
:100A8000D2F7ED82FE820F831887CE1ADF0ADC824E
:100A9000CB821A82CE0101960E94A1052896EAE037
:100AA0000C94D810EF92FF920F931F937B018C014F
:100AB00080E0E81680E0F80681E0080780E018078B
:100AC00088F48FEFE816F1040105110531F028F0E4
:100AD00088E090E0A0E0B0E017C080E090E0A0E007
:100AE000B0E012C080E0E81680E0F80680E0080779
:100AF00081E0180728F088E190E0A0E0B0E004C0B1
:100B000080E190E0A0E0B0E020E230E040E050E0A2
:100B1000281B390B4A0B5B0B04C016950795F794FD
:100B2000E7948A95D2F7F701E859FF4F8081281B97
:100B3000310941095109C9011F910F91FF90EF90AF
:100B40000895DF92EF92FF920F931F93FC01E480D0
:100B5000F58006811781D1808081823048F480E061
:100B600090E0A0E1B0E0E82AF92A0A2B1B2BA5C0EF
:100B7000843009F49FC0823021F4EE24FF248701E1
:100B800005C0E114F1040105110519F4E0E0F0E0FD
:100B900096C0628173819FEF623879070CF05BC069
:100BA00022E83FEF261B370B2A3131052CF020E0DD
:100BB00030E040E050E02AC0B801A701022E04C096
:100BC00076956795579547950A94D2F781E090E01E
:100BD000A0E0B0E004C0880F991FAA1FBB1F2A9590
:100BE000D2F70197A109B1098E219F21A023B1233A
:100BF0000097A105B10521F081E090E0A0E0B0E010
:100C00009A01AB01282B392B4A2B5B2BDA01C90146
:100C10008F779070A070B07080349105A105B105F8
:100C200039F427FF09C0205C3F4F4F4F5F4F04C08E
:100C3000215C3F4F4F4F5F4FE0E0F0E02030A0E0FD
:100C40003A07A0E04A07A0E45A0710F0E1E0F0E01C
:100C500079018A0127C06038710564F5FB01E1580C
:100C6000FF4FD801C7018F779070A070B0708034AB
:100C70009105A105B10539F4E7FE0DC080E490E0CF
:100C8000A0E0B0E004C08FE390E0A0E0B0E0E80EA8
:100C9000F91E0A1F1B1F17FF05C016950795F7942D
:100CA000E794319687E016950795F794E7948A952F
:100CB000D1F705C0EE24FF248701EFEFF0E06E2F9F
:100CC000679566276795902F9F77D794DD24D794F3
:100CD0008E2F8695492F462B582F5D29B701CA01C3
:100CE0001F910F91FF90EF90DF900895FC01DB01C1
:100CF000408151812281622F6F7770E0221F22276D
:100D0000221F9381892F880F822B282F30E0991F73
:100D10009927991F11969C93119721153105A9F5D3
:100D2000411551056105710511F482E037C082E873
:100D30009FEF13969C938E9312979A01AB0167E0F5
:100D4000220F331F441F551F6A95D1F783E08C9300
:100D50000DC0220F331F441F551F12968D919C9179
:100D60001397019713969C938E931297203080E0EF
:100D7000380780E0480780E4580758F314962D930D
:100D80003D934D935C93179708952F3F310579F468
:100D9000411551056105710519F484E08C9308959E
:100DA00064FF03C081E08C9312C01C9210C02F57C7
:100DB000304013963C932E93129783E08C9387E0F8
:100DC000440F551F661F771F8A95D1F770641496DC
:100DD0004D935D936D937C93179708951F93DC015A
:100DE000FB019C91923008F447C08081823008F466
:100DF00043C0943051F411961C91843099F581814F
:100E0000682F70E0611B71093FC0843021F092307F
:100E100031F48230B9F18181882389F12DC0119696
:100E20001C9111978230F1F081811817D9F4129634
:100E30002D913C911397828193818217930794F0AF
:100E400028173907BCF014968D919D910D90BC9197
:100E5000A02D2481358146815781281739074A07FB
:100E60005B0718F4112341F00AC082179307A40707
:100E7000B50740F4112319F061E070E005C06FEF91
:100E80007FEF02C060E070E0CB011F910895DF9317
:100E9000CF9300D0CDB7DEB79A838983A7E2B0E0C5
:100EA000E7E2F0E08081282F2F73E981FA818081C9
:100EB000882F90E0002496958795079496958795BE
:100EC0000794982F802D822B8C93A6E2B0E0E6E267
:100ED000F0E0808180688C93A6E2B0E0E6E2F0E08A
:100EE0008081877F8C93A6E2B0E0E6E2F0E080812B
:100EF000982F987FE981FA818181892B8C930F90BB
:100F00000F90CF91DF910895DF93CF930F92CDB7DC
:100F1000DEB78983A7E2B0E0E7E2F0E08081982FB6
:100F2000907E89818F71892B8C93A6E2B0E0E6E2F6
:100F3000F0E0808180648C93E6E2F0E08081882F8D
:100F400090E0807190700097B9F3A6E2B0E0E6E21D
:100F5000F0E080818F7E8C93E4E2F0E080819181EB
:100F60000F90CF91DF910895DF93CF9300D000D001
:100F70000F92CDB7DEB789836A834B838A8188302D
:100F800008F0D5C08981843008F0D1C08981282F2C
:100F900030E03D832C838C819D818130910509F463
:100FA00043C02C813D81223031052CF48C819D8100
:100FB000009771F0BCC02C813D812230310509F4CD
:100FC0005FC08C819D818330910509F485C0AFC0DD
:100FD0008B818130A1F4AAE3B0E0EAE3F0E0808104
:100FE000482F8A81282F30E081E090E0022E02C055
:100FF000880F991F0A94E2F7842B8C9398C0AAE378
:10100000B0E0EAE3F0E08081482F8A81282F30E0C9
:1010100081E090E0022E02C0880F991F0A94E2F747
:10102000809584238C9383C08B818130A1F4A7E3C6
:10103000B0E0E7E3F0E08081482F8A81282F30E09C
:1010400081E090E0022E02C0880F991F0A94E2F717
:10105000842B8C936CC0A7E3B0E0E7E3F0E08081E1
:10106000482F8A81282F30E081E090E0022E02C0D4
:10107000880F991F0A94E2F7809584238C9357C0B8
:101080008B818130A1F4A4E3B0E0E4E3F0E080815F
:10109000482F8A81282F30E081E090E0022E02C0A4
:1010A000880F991F0A94E2F7842B8C9340C0A4E325
:1010B000B0E0E4E3F0E08081482F8A81282F30E01F
:1010C00081E090E0022E02C0880F991F0A94E2F797
:1010D000809584238C932BC08B818130A1F4A1E374
:1010E000B0E0E1E3F0E08081482F8A81282F30E0F2
:1010F00081E090E0022E02C0880F991F0A94E2F767
:10110000842B8C9314C0A1E3B0E0E1E3F0E0808194
:10111000482F8A81282F30E081E090E0022E02C023
:10112000880F991F0A94E2F7809584238C930F907F
:101130000F900F900F900F90CF91DF910895DF9354
:10114000CF9300D000D00F92CDB7DEB789836A83EA
:101150004B838A81883008F0D5C08981843008F0BB
:10116000D1C08981282F30E03D832C838C819D81E3
:101170008130910509F443C02C813D812230310535
:101180002CF48C819D81009771F0BCC02C813D8135
:101190002230310509F45FC08C819D818330910537
:1011A00009F485C0AFC08B818130A1F4ABE3B0E01E
:1011B000EBE3F0E08081482F8A81282F30E081E046
:1011C00090E0022E02C0880F991F0A94E2F7842B48
:1011D0008C9398C0ABE3B0E0EBE3F0E08081482F64
:1011E0008A81282F30E081E090E0022E02C0880F33
:1011F000991F0A94E2F7809584238C9383C08B8196
:101200008130A1F4A8E3B0E0E8E3F0E08081482F6A
:101210008A81282F30E081E090E0022E02C0880F02
:10122000991F0A94E2F7842B8C936CC0A8E3B0E07A
:10123000E8E3F0E08081482F8A81282F30E081E0C8
:1012400090E0022E02C0880F991F0A94E2F7809561
:1012500084238C9357C08B818130A1F4A5E3B0E047
:10126000E5E3F0E08081482F8A81282F30E081E09B
:1012700090E0022E02C0880F991F0A94E2F7842B97
:101280008C9340C0A5E3B0E0E5E3F0E08081482F17
:101290008A81282F30E081E090E0022E02C0880F82
:1012A000991F0A94E2F7809584238C932BC08B813D
:1012B0008130A1F4A2E3B0E0E2E3F0E08081482FC6
:1012C0008A81282F30E081E090E0022E02C0880F52
:1012D000991F0A94E2F7842B8C9314C0A2E3B0E028
:1012E000E2E3F0E08081482F8A81282F30E081E01E
:1012F00090E0022E02C0880F991F0A94E2F78095B1
:1013000084238C930F900F900F900F900F90CF919C
:10131000DF910895DF93CF9300D000D00F92CDB727
:10132000DEB78A836B8319828B81883008F084C092
:101330008A81843008F080C08A81282F30E03D8384
:101340002C834C815D814130510579F18C819D81E7
:101350008230910534F42C813D812115310569F0ED
:101360006BC04C815D8142305105B9F18C819D810A
:101370008330910509F449C05FC0E9E3F0E0808162
:10138000282F30E08B81882F90E0A90102C055956D
:1013900047958A95E2F7CA0181709070882319F009
:1013A00081E0898349C0198247C0E6E3F0E080818B
:1013B000282F30E08B81882F90E0A90102C055953D
:1013C00047958A95E2F7CA0181709070882319F0D9
:1013D00081E0898331C019822FC0E3E3F0E080818E
:1013E000282F30E08B81882F90E0A90102C055950D
:1013F00047958A95E2F7CA0181709070882319F0A9
:1014000081E0898319C0198217C0E0E3F0E0808190
:10141000282F30E08B81882F90E0A90102C05595DC
:1014200047958A95E2F7CA0181709070882319F078
:1014300081E0898301C0198289810F900F900F90FC
:101440000F900F90CF91DF910895DF93CF9300D04D
:1014500000D0CDB7DEB789836A838981843090F567
:101460008981282F30E03C832B838B819C818130C4
:101470009105D1F02B813C81223031052CF48B81F8
:101480009C81009761F01EC02B813C812230310588
:1014900081F08B819C818330910581F013C0EAE358
:1014A000F0E08A8180830EC0E7E3F0E08A818083E8
:1014B00009C0E4E3F0E08A81808304C0E1E3F0E066
:1014C0008A8180830F900F900F900F90CF91DF91C2
:1014D0000895DF93CF9300D000D0CDB7DEB78983D6
:1014E0006A838981843090F58981282F30E03C839C
:1014F0002B838B819C8181309105D1F02B813C81A4
:10150000223031052CF48B819C81009761F01EC044
:101510002B813C812230310581F08B819C8183308D
:10152000910581F013C0EBE3F0E08A8180830EC067
:10153000E8E3F0E08A81808309C0E5E3F0E08A8196
:10154000808304C0E2E3F0E08A8180830F900F90F3
:101550000F900F90CF91DF910895DF93CF9300D03C
:1015600000D0CDB7DEB78A8319828A81843090F5A6
:101570008A81282F30E03C832B838B819C818130B2
:101580009105D1F02B813C81223031052CF48B81E7
:101590009C81009761F01EC02B813C812230310577
:1015A00081F08B819C818330910581F013C0E9E348
:1015B000F0E0808189830EC0E6E3F0E080818983DA
:1015C00009C0E3E3F0E08081898304C0E0E3F0E058
:1015D0008081898389810F900F900F900F90CF9118
:1015E000DF910895DF93CF93CDB7DEB7A1E3B0E0ED
:1015F000E1E3F0E080818B7F8C93A5E5B0E0E5E549
:10160000F0E0808183608C93ABE5B0E0EBE5F0E047
:10161000808180648C937894CF91DF910895DF93DB
:10162000CF93CDB7DEB7A3E5B0E0E3E5F0E080818E
:101630008A668C93CF91DF910895DF93CF93CDB7D6
:10164000DEB7AEE4B0E0EEE4F0E0808188608C9339
:10165000AEE4B0E0EEE4F0E0808183608C93EAE4F5
:10166000F0E083E294EF91838083A9E5B0E0E9E5BF
:10167000F0E0808180618C93CF91DF910895DF93BA
:10168000CF93CDB7DEB7A9E5B0E0E9E5F0E0808122
:10169000837E8C93AEE4B0E0EEE4F0E08081887F5E
:1016A0008C93ECE4F0E011821082CF91DF910895E9
:1016B000DF93CF93CDB7DEB7F894E1E4F0E089E0B3
:1016C00080837894CF91DF910895DF93CF9300D0FA
:1016D000CDB7DEB783E390E09A838983E0E4F0E05E
:1016E00089819A81892F99278083E9E2F0E08981B5
:1016F0008083EAE2F0E088E08083E0E4F0E086E0E6
:1017000080830F900F90CF91DF910895DF93CF9357
:101710000F92CDB7DEB78983EBE2F0E08081882FAE
:1017200090E0807290700097B9F3ECE2F0E089816C
:1017300080830F90CF91DF910895DF93CF93CDB742
:10174000DEB7EBE2F0E080818823DCF7ECE2F0E04A
:101750008081CF91DF910895DF93CF93CDB7DEB72E
:101760002A970FB6F894DEBF0FBECDBF80E00E946F
:1017700084079A87898789859A85CC01A0E0B0E0A3
:10178000BC01CD010E94D904DC01CB01BC01CD011B
:1017900020E030E040EA5BE30E941F02DC01CB0165
:1017A0008D839E83AF83B8876D817E818F8198857D
:1017B00020E030E048EC52E40E941F02DC01CB0143
:1017C00089839A83AB83BC8389819A81AB81BC81F5
:1017D000BC01CD012A960FB6F894DEBF0FBECDBF77
:1017E000CF91DF910895DF93CF93CDB7DEB7A09768
:1017F0000FB6F894DEBF0FBECDBF789481E063E0F2
:1018000041E00E94B4070E940F0B1F8E86E088A360
:10181000CE014F960E9447070E94650BECE5F0E071
:10182000108280E090E00E94EB1080936A0182E0D9
:1018300060E041E00E94B40782E061E041E00E9484
:10184000B40782E062E041E00E94B4071E8E1D8E64
:10185000F3C082E061E041E00E949F0880E090E0F8
:10186000A8ECB2E4898F9A8FAB8FBC8F698D7A8D8B
:101870008B8D9C8D20E030E04AE753E40E941F02EC
:10188000DC01CB018D8B9E8BAF8BB88F6D897E89F0
:101890008F89988D20E030E040E85FE30E942504C6
:1018A00088232CF481E090E09C8B8B8B3FC06D896A
:1018B0007E898F89988D20E03FEF4FE757E40E94A3
:1018C000C50318164CF5698D7A8D8B8D9C8D20E0A3
:1018D00030E040E251E40E941F02DC01CB01BC0178
:1018E000CD010E944900DC01CB019C8B8B8B0FC08A
:1018F00089E190E09A8B898B89899A890197F1F720
:101900009A8B898B8B899C8901979C8B8B8B8B897C
:101910009C89009769F714C06D897E898F89988D9D
:101920000E944900DC01CB019C8B8B8B8B899C89AD
:10193000988B8F878F8598890197F1F7988B8F8780
:1019400082E061E040E00E949F0880E090E0A8EC27
:10195000B2E48B879C87AD87BE876B857C858D8540
:101960009E8520E030E04AE753E40E941F02DC013C
:10197000CB018F839887A987BA876F8178858985FE
:101980009A8520E030E040E85FE30E942504882348
:101990002CF481E090E09E838D833FC06F81788539
:1019A00089859A8520E03FEF4FE757E40E94C50301
:1019B00018164CF56B857C858D859E8520E030E082
:1019C00040E251E40E941F02DC01CB01BC01CD01C9
:1019D0000E944900DC01CB019E838D830FC089E109
:1019E00090E09C838B838B819C810197F1F79C8392
:1019F0008B838D819E8101979E838D838D819E81B6
:101A0000009769F714C06F81788589859A850E944F
:101A10004900DC01CB019E838D838D819E819A8359
:101A2000898389819A810197F1F79A8389838D8DC2
:101A30009E8D01969E8F8D8F8D8D9E8D823091050E
:101A40000CF407CF80916A01823011F40E94760E67
:101A50000E94AC0BDC01CB0180936B0190936C0175
:101A6000A0936D01B0936E0180916B0190916C0118
:101A7000A0916D01B0916E01BC01CD010E944900A1
:101A8000DC01CB010E94860B80916B0190916C016F
:101A9000A0916D01B0916E01BC01CD0120E030E05C
:101AA00048E452E40E94550418161CF010926A0192
:101AB00015C080916B0190916C01A0916D01B09166
:101AC0006E01BC01CD0120E030E048E452E40E9408
:101AD000C50318161CF481E080936A0180916B01A4
:101AE00090916C01A0916D01B0916E01BC01CD018E
:101AF0000E944900DC01CB010E947F0DA9CFDF933A
:101B0000CF9300D00F92CDB7DEB7898380916A0161
:101B1000282F30E03B832A838A819B818130910585
:101B200061F02A813B812230310551F08A819B810D
:101B3000009741F40E94A80D05C00E945F0E02C0EC
:101B40000E94760E0F900F900F90CF91DF91089525
:101B50000F931F93DF93CF9300D0CDB7DEB780E014
:101B600090E060E00E94F31080916B0190916C0115
:101B7000A0916D01B0916E01BC01CD0120E030E07B
:101B800040EA51E40E942504882324F4ECE5F0E0C7
:101B900010828EC080916B0190916C01A0916D01BB
:101BA000B0916E011A82BC01CD0120E030E040EA24
:101BB00051E40E94F503882314F081E08A8381E0D8
:101BC0009A818927882309F04BC080916B019091FD
:101BD0006C01A0916D01B0916E011982BC01CD0123
:101BE00020E030E040E252E40E942504882314F40F
:101BF000E1E0E98381E0F9818F27882389F50CE50D
:101C000010E080916B0190916C01A0916D01B091F9
:101C10006E01BC01CD0120E030E040EA51E40E94B9
:101C2000C101DC01CB01BC01CD0120E030E040EA84
:101C300051E40E941903DC01CB01BC01CD0120E07D
:101C400030E04FE753E40E941F02DC01CB01BC01EE
:101C5000CD010E944900DC01CB01F801808328C03E
:101C600080916B0190916C01A0916D01B0916E011A
:101C7000BC01CD0120E030E040E252E40E94F503D7
:101C80008823B4F080916B0190916C01A0916D015B
:101C9000B0916E01BC01CD0120E030E048E452E497
:101CA0000E945504181624F0ECE5F0E08FEF8083D5
:101CB0000F900F90CF91DF911F910F910895DF93B7
:101CC000CF93CDB7DEB780E090E061E00E94F310E3
:101CD000ECE5F0E08FEF808382E060E041E00E947D
:101CE0009F080E941D0BCF91DF910895DF93CF9342
:101CF000CDB7DEB780E090E062E00E94F310ECE543
:101D0000F0E08FEF8083CF91DF9108951F920F92C3
:101D10000FB60F9211242F933F934F935F936F93BE
:101D20007F938F939F93AF93BF93EF93FF93DF9333
:101D3000CF93CDB7DEB7AA97DEBFCDBF0E94AC0B65
:101D4000DC01CB0180936B0190936C01A0936D013A
:101D5000B0936E0180916B0190916C01A0916D0127
:101D6000B0916E01BC01CD0120E030E048E452E4C6
:101D70000E94C50318160CF07FC182E062E041E0CA
:101D80000E949F0880E090E0AAEFB3E48FA398A799
:101D9000A9A7BAA76FA178A589A59AA520E030E0E8
:101DA0004AE753E40E941F02DC01CB018BA39CA3F2
:101DB000ADA3BEA36BA17CA18DA19EA120E030E0CC
:101DC00040E85FE30E94250488232CF481E090E042
:101DD0009AA389A33FC06BA17CA18DA19EA120E005
:101DE0003FEF4FE757E40E94C50318164CF56FA16B
:101DF00078A589A59AA520E030E040E251E40E9450
:101E00001F02DC01CB01BC01CD010E944900DC01B5
:101E1000CB019AA389A30FC089E190E098A38F8F8B
:101E20008F8D98A10197F1F798A38F8F89A19AA11F
:101E300001979AA389A389A19AA1009769F714C071
:101E40006BA17CA18DA19EA10E944900DC01CB0168
:101E50009AA389A389A19AA19E8F8D8F8D8D9E8D26
:101E60000197F1F79E8F8D8F82E062E040E00E9443
:101E70009F0880E090E0AAEFB3E4898F9A8FAB8F40
:101E8000BC8F698D7A8D8B8D9C8D20E030E04AE788
:101E900053E40E941F02DC01CB018D8B9E8BAF8B24
:101EA000B88F6D897E898F89988D20E030E040E879
:101EB0005FE30E94250488232CF481E090E09C8B52
:101EC0008B8B3FC06D897E898F89988D20E03FEF95
:101ED0004FE757E40E94C50318164CF5698D7A8DBB
:101EE0008B8D9C8D20E030E040E251E40E941F0287
:101EF000DC01CB01BC01CD010E944900DC01CB011A
:101F00009C8B8B8B0FC089E190E09A8B898B8989A0
:101F10009A890197F1F79A8B898B8B899C89019714
:101F20009C8B8B8B8B899C89009769F714C06D897A
:101F30007E898F89988D0E944900DC01CB019C8BA2
:101F40008B8B8B899C89988B8F878F85988901973C
:101F5000F1F7988B8F87809168018E3009F086C0E9
:101F600080E090E062E00E94F31082E060E040E0F8
:101F70000E949F0880E090E0AAEFB4E48B879C87E2
:101F8000AD87BE876B857C858D859E8520E030E0A2
:101F90004AE753E40E941F02DC01CB018F8398873C
:101FA000A987BA876F81788589859A8520E030E096
:101FB00040E85FE30E94250488232CF481E090E050
:101FC0009E838D833FC06F81788589859A8520E0C7
:101FD0003FEF4FE757E40E94C50318164CF56B8599
:101FE0007C858D859E8520E030E040E251E40E94B2
:101FF0001F02DC01CB01BC01CD010E944900DC01C4
:10200000CB019E838D830FC089E190E09C838B83FD
:102010008B819C810197F1F79C838B838D819E81BD
:1020200001979E838D838D819E81009769F714C0EF
:102030006F81788589859A850E944900DC01CB01F2
:102040009E838D838D819E819A83898389819A81E4
:102050000197F1F79A83898382E060E041E00E9472
:102060009F080E94580B0E94760E0DC08091680157
:102070008F5F8093680107C082E060E040E00E94CB
:102080009F080E943F0BAA96DEBFCDBFCF91DF9184
:10209000FF91EF91BF91AF919F918F917F916F9140
:1020A0005F914F913F912F910F900FBE0F901F9016
:1020B00018951F920F920FB60F9211242F933F93F2
:1020C0004F935F936F937F938F939F93AF93BF9340
:1020D000EF93FF93DF93CF93CDB7DEB70E94AC0BA6
:1020E000DC01CB0180936B0190936C01A0936D0197
:1020F000B0936E0180916B0190916C01A0916D0184
:10210000B0916E01BC01CD0120E030E040E252E42C
:102110000E94F5038823ACF080916B0190916C01D3
:10212000A0916D01B0916E01BC01CD0120E030E0C5
:1021300048E452E40E94550418161CF084E50E94FD
:10214000860BCF91DF91FF91EF91BF91AF919F915E
:102150008F917F916F915F914F913F912F910F9050
:102160000FBE0F901F9018952F923F924F925F9243
:102170006F927F928F929F92AF92BF92CF92DF9297
:10218000EF92FF920F931F93CF93DF93CDB7DEB7FC
:10219000CA1BDB0B0FB6F894DEBF0FBECDBF099490
:1021A0002A88398848885F846E847D848C849B84E7
:1021B000AA84B984C884DF80EE80FD800C811B81F5
:1021C000AA81B981CE0FD11D0FB6F894DEBF0FBE24
:1021D000CDBFED010895E199FECF9FBB8EBBE09A84
:1021E00099278DB30895262FE199FECF9FBB8EBB13
:1021F0002DBB0FB6F894E29AE19A0FBE01960895AE
:04220000F894FFCF80
:1022040000000000000000000001020203030303B9
:102214000404040404040404050505050505050572
:102224000505050505050505060606060606060652
:10223400060606060606060606060606060606063A
:102244000606060606060606070707070707070722
:10225400070707070707070707070707070707070A
:1022640007070707070707070707070707070707FA
:1022740007070707070707070707070707070707EA
:1022840007070707070707070808080808080808D2
:1022940008080808080808080808080808080808BA
:1022A40008080808080808080808080808080808AA
:1022B400080808080808080808080808080808089A
:1022C400080808080808080808080808080808088A
:1022D400080808080808080808080808080808087A
:1022E400080808080808080808080808080808086A
:1022F400080808080808080808080808080808085A
:0A230400080808080808080801008E
:00000001FF
